:020000040800F2
:1000000078200020450100084D0100084F0100083C
:1000100051010008530100085501000800000000CC
:100020000000000000000000000000005701000870
:1000300059010008000000005B0100085D01000894
:10004000992F000865210008892A00081725000853
:10005000F50C0008DD230008510C0008550C0008C1
:10006000570C0008590C00085B0C0008650B0008D1
:10007000670B0008690B00086B0B00086D0B00088C
:100080006F0B0008710B00089B0500085F0100085A
:100090005F0100085F0100085F0100085D0C0008B7
:1000A0008B2A0008912A00088F2A00088D2A000850
:1000B000932A00089B2A0008A32A0008530F00086F
:1000C000510F0008570F0008550F00081B250008A6
:1000D0001D250008892D0008912D0008992D000884
:1000E000530C000815250008972F0008BD2A0008AA
:1000F000C32A0008C12A0008BF2A00089D0500087D
:100100002D0D000819250008AB2A00081F2500083E
:10011000852D0008872D0008B32A0008BB2A000897
:10012000730B0008750B0008770B0008790B0008AB
:10013000DFF80CD000F0F4F9004800479D4F0008AC
:10014000782000200648804706480047FEE7FEE783
:10015000FEE7FEE7FEE7FEE7FEE7FEE7FEE7FEE777
:100160009D290008310100082DE9FE4F804681EAF3
:100170000300C00F0C46009021F0004123F0004521
:10018000B8EB0200A94105D24046214690461C46E4
:100190000B46024623F00040104347D0270DC7F31B
:1001A0000A00C3F30A510290401A019040286BDA0A
:1001B000C3F3130040F4801B0098924620B1002343
:1001C000D2EB030A63EB0B0B01985946C0F14002D6
:1001D000504600F017F906460D4650465946019A1A
:1001E00000F02FF910EB08006141002487EA11525A
:1001F00084EAE7731A4340D0009A62B3019A012A55
:100200004FEA075215DC001B61EB02014FF0004280
:1002100002EA0752CDE90042001C41F58011324646
:100220002B4600F02FF903B0BDE8F08F4046214681
:10023000F9E7001B61EB0201001C41F58013001877
:100240005B412018A2F5001747EB030140EAD57087
:10025000B6196D4111E06D084FEA360645EAC075E2
:100260004FEA0752001B61EB0201001C41F58011AF
:1002700049084FEA30000019514132462B4603B07D
:10028000BDE8F04F00F0EFB80098012240000023D5
:10029000D0EB020263EBE073009821464FEAE07472
:1002A000B8EB000061EB0401E9E783F000435BE792
:1002B00081F0004158E72DE9F04D81EA030404F094
:1002C000004B21F0004514464FF0000A23F0004196
:1002D00050EA050220D054EA01021DD0C5F30A57A6
:1002E0000246C5F31303C1F31300C1F30A5640F4E9
:1002F000801543F48013A7EB0608101BD64608F2BE
:10030000FD3873EB050002D308F1010801E09218F3
:100310005B41B8F1000F03DA00200146BDE8F08D23
:1003200000204FF48011064684460EE0171B73EB45
:10033000050705D3121B63EB050306434CEA010CCA
:1003400049084FEA300092185B4150EA0107EDD1AD
:1003500052EA030012D082EA040083EA050108434E
:1003600005D0101BAB4106D20122002306E000227B
:100370004FF0004302E06FF0010253101AEB060049
:100380004CEB085110EB0A0041EB0B01BDE8F04DBE
:1003900000F069B870B5C1F30A5201F000450024BD
:1003A000C1F3130140F2FF3341F480119A4201DAA4
:1003B000002070BD40F233439A42A2F2334203DC84
:1003C000524200F02EF800E090402C43F1D0404221
:1003D00070BD000030B5041E71F1000404DB4FF065
:1003E0000044404264EB0101141E73F1000405DB7C
:1003F0001C464FF00043524263EB04038B4208BF9C
:10040000824230BD202A04DB203A00FA02F10020AB
:1004100070479140C2F1200320FA03F31943904042
:100420007047202A04DB203A21FA02F000217047AD
:1004300021FA02F3D040C2F120029140084319464C
:100440007047202A06DBCB17203A41FA02F043EA34
:10045000E07306E041FA02F3D040C2F1200291407D
:1004600008431946704710B5141E73F1000408DAEA
:10047000401C41F1000192185B411A4301D120F068
:10048000010010BD2DE9F04D92469B4611B1B1FA25
:1004900081F202E0B0FA80F220329046FFF7B2FF1C
:1004A00004460F4640EA0A0041EA0B0153465A4609
:1004B000084313D0114653EA010019D0C8F1400295
:1004C0005046FFF7AEFF05460E4650465946424697
:1004D000FFF798FF084305D0012004E02046394685
:1004E000BDE8F08D0020054346EAE0762C43374313
:1004F0000A986305E40AA0EB08000022FD0A44EA1A
:1005000047540A3002D500200146E9E701051019D9
:100510006941DDE9084500196941BDE8F04DA2E7F0
:10052000064C074D06E0E06840F0010394E8070040
:1005300098471034AC42F6D3FFF7FEFDC0A1000887
:10054000E0A1000870B58C1810F8015B15F00703E6
:1005500001D110F8013B2A1106D110F8012B03E05C
:1005600010F8016B01F8016B5B1EF9D12B0705D464
:100570000023521E0DD401F8013BFAE710F8013BAD
:10058000CB1A921C03E013F8015B01F8015B521EC9
:10059000F9D5A142D8D3002070BD7047704710B57F
:1005A0004FF08040008A00F00100D8B14FF0804049
:1005B000808900F00100A8B14FF0804080894FF69B
:1005C000FE7108404FF08041888105F051F94FF0ED
:1005D0008040808940F001004FF0804188814FF6D3
:1005E000FE70088210BD000010B51148008800F0B0
:1005F0000100E0B10E48001F008800F00100B0B11A
:100600000B48001F00884FF6FE7108400849091F7B
:10061000088005F05FF90648001F008840F00100DF
:100620000349091F08804FF6FE70091D088010BDA0
:10063000100400400E48008800F00100B8B10C48DA
:10064000001F008800F0010088B10948001F0088E1
:100650004FF6FE7108400649091F088008460088C9
:1006600040F0010008804FF6FE70091D08807047B9
:100670001008004010B51148008800F00100E0B1FA
:100680000E48001F008800F00100B0B10B48001FA9
:1006900000884FF6FE7108400849091F088005F0E0
:1006A000F3F90648001F008840F001000349091FC4
:1006B00008804FF6FE70091D088010BD100C004028
:1006C0007047000010B586B004460020ADF8000069
:1006D000ADF802004FF40070ADF804000020ADF852
:1006E000060069460A4802F067FB02940020ADF854
:1006F0000C00ADF80E00ADF81000ADF814000C20A1
:10070000ADF8120002A9024802F0D0FB06B010BDFD
:100710000038014010B5002440F22551084802F08D
:1007200075FB58B10648008800F0200030B104483D
:10073000001D0088C4B2204605F0F2FA10BD00008A
:10074000003801407FB50446254600950020ADF8ED
:100750000400ADF80600ADF80800ADF80C000C2060
:10076000ADF80A006946024802F0A0FB7FBD000018
:100770000044004010B5002440F22551104802F01A
:1007800045FB60B120210E4802F033FB012806D161
:100790000B4802F0F7FBC4B2204604F033FF40F2EE
:1007A0002771074802F032FB012807D18021044855
:1007B00002F01FFB012801D104F080FF10BD0000F2
:1007C000004400407FB50446254600950020ADF862
:1007D0000400ADF80600ADF80800ADF80C000C20E0
:1007E000ADF80A006946024802F060FB7FBD0000D8
:1007F000004C0040014908607047000000860D422F
:1008000007E040F66E2101E04A1E91B20029FBDCB0
:10081000401E0028F5D1704710B500F00BF800F02D
:1008200003F800F03CF810BD10B54FF4E06001F0A3
:100830003DF810BD10B501F0E9FC4FF4803001F037
:10084000A7FD01F01FFE0446012C27D1102000F067
:1008500053FA022000F05EFA002001F08DFD002026
:1008600001F0E4FDA00201F0D5FDE00301F082FCFF
:100870004FF4E011200401F0EBFD012001F0E2FD56
:1008800000BF392001F052FD0028FAD0022001F00B
:10089000EDFD00BF01F068FD0828FBD110BD7047D9
:1008A0001FB50121084601F071FC1C208DF80C00D9
:1008B00001208DF80D0002208DF80E0001208DF82A
:1008C0000F0003A800F0BAFF4FF0804002F00AF9D1
:1008D0004FF4FA70ADF8040040F21F10ADF80000BC
:1008E0000020ADF80600ADF8020069464FF08040E8
:1008F00002F0F6F90121880702F0E4F8012211461E
:10090000900702F0E3F90121880702F0DEF81FBD2D
:100910001FB50121022001F039FC1D208DF80C00CB
:1009200001208DF80D0002208DF80E0001208DF8B9
:100930000F0003A800F082FF0E4802F0D3F80A204F
:10094000ADF8040040F2E730ADF800000020ADF84B
:100950000600ADF802006946064802F0C1F901211F
:10096000044802F0AFF801221146024802F0AEF945
:100970001FBD0000000400401FB50121082001F048
:1009800005FC32208DF80C0000208DF80D008DF84C
:100990000E0001208DF80F0003A800F04FFF0E4855
:1009A00002F0A0F80A20ADF8040040F2D310ADF830
:1009B00000000020ADF80600ADF8020069460648C8
:1009C00002F08EF90121044802F07CF80122114660
:1009D000014802F07BF91FBD000C00401CB501214D
:1009E000402001F0F3FB0121082001F0EFFB012181
:1009F000042001F0EBFB0121880301F0E7FB252037
:100A00008DF8000000208DF8020001208DF8030011
:100A1000684600F013FF4FF40070ADF8040010209A
:100A20008DF8070003208DF8060001A9104800F09A
:100A30007EF94FF40070ADF8040018208DF807001F
:100A400003208DF8060001A90A4800F070F94FF460
:100A50008060ADF8040004208DF8070001A9054866
:100A600000F065F94FF40071014800F03CFA1CBD3C
:100A7000000C0140000801401CB50121042001F0D8
:100A8000A5FB00214FF4003001F080FB0A20FFF7A6
:100A9000B7FE0121480401F079FB26208DF8000003
:100AA00000208DF8010007208DF8020001208DF84C
:100AB0000300684600F0C2FE0420ADF804001820D0
:100AC0008DF8070003208DF8060001A9064800F004
:100AD0002EF90820ADF8040004208DF8070001A9C4
:100AE000014800F024F91CBD000801401CB501219B
:100AF000102001F06BFB00214FF4002001F046FBB9
:100B00000A20FFF77DFE0121C80401F03FFB3420DD
:100B10008DF8000000208DF8010007208DF80200FC
:100B200000208DF80300684600F088FE4FF48060D6
:100B3000ADF8040018208DF8070003208DF806009A
:100B400001A9074800F0F3F84FF40060ADF8040085
:100B500004208DF8070001A9014800F0E8F81CBD49
:100B600000100140704770477047704770477047EA
:100B700070477047704770477047000000222A4B4B
:100B80001A702A4AB2F9002090422ED0B0F5A97FFF
:100B90002BDA274A127812B9AA22254B1A700022A2
:100BA000244B1A700146214A12888A1A11B2002970
:100BB0000BDD1D4A127842F004021B4B1A7007220B
:100BC0001D4B1A701D4A118015E0174A127842F029
:100BD0000802154B1A700822174B1A70134A128814
:100BE000121A12B2154B1A8005E00022134B1A801C
:100BF0000122104B1A700022114B1A700C4A127805
:100C0000AA2A06D10F4A92880F4B1A8005220C4B54
:100C10001A70084A12782AB90C4A128842F0010266
:100C20000A4B1A8070470000C9150020BC1500202F
:100C3000D3150020ED150020E6150020C415002076
:100C4000D515002054610008CC1500200004004098
:100C50007047704770477047704770477047000093
:100C6000002123498279002A3AD00A461268036893
:100C70009A430B461A600A1D126803689A430B1DBB
:100C80001A60027911440A6803681A430A60184A14
:100C90000832126803689A43154B08331A601A1D0C
:100CA000126803689A43124B0C331A604279102A77
:100CB0000ED11A1F126803681A430D4B08331A60CD
:100CC0001A1D126803681A43094B0C331A600DE0B1
:100CD0000749427911440A6803681A430A6005E02B
:100CE000027911440A6803689A430A607047000059
:100CF00000040140704700000549096821F0100117
:100D0000034A1160114609680143116070470000F1
:100D10000020024001460020034A106800F038001D
:100D200008431060704700000020024070472DE922
:100D3000F041024600250026002000230024002761
:100D400091F803C00CF00F0591F803C00CF0100CE3
:100D5000BCF1000F03D091F802C04CEA050591F8F0
:100D600000C0BCF1000F31D0146800202BE04FF020
:100D7000010C0CFA00F3B1F800C00CEA03069E4225
:100D800020D183004FF00F0C0CFA03F7BC4305FA97
:100D900003FC4CEA040491F803C0BCF1280F06D10F
:100DA0004FF0010C0CFA00FCC2F814C00AE091F8F4
:100DB00003C0BCF1480F05D14FF0010C0CFA00FC48
:100DC000C2F810C0401C0828D1D31460B1F800C08C
:100DD000BCF1FF0F34DD546800202EE000F1080C58
:100DE0004FF0010808FA0CF3B1F800C00CEA030652
:100DF0009E4221D183004FF00F0C0CFA03F7BC4345
:100E000005FA03FC4CEA040491F803C0BCF1280F76
:100E100005D100F1080C08FA0CF8C2F8148091F81A
:100E200003C0BCF1480F07D100F1080C4FF00108D6
:100E300008FA0CF8C2F81080401C0828CED3546081
:100E4000BDE8F081F0B50A4600230024002100250A
:100E500000F00046B6F1004F02D11D4EF16901E0ED
:100E60001B4E7168C0F3034583B200F44016B6F51B
:100E7000401F08D121F07061154E766826F070662B
:100E8000134F7E6012E000F48016B6F5801F06D185
:100E9000032606FA05F4A14341F0706106E0460D11
:100EA000360103FA06F6B14341F0706122B1460DF6
:100EB000360103FA06F6314300F00046B6F1004F62
:100EC00002D1034EF16101E0014E7160F0BD0000FE
:100ED000000001400246002093680B400BB1012046
:100EE00000E00020704741617047016170470AB11E
:100EF000016100E041617047F0B502460B460020F9
:100F0000002122E0565C002419E0002706F0800C46
:100F1000BCF1000F00D001274FEA466C4FEA1C6677
:100F2000C50B4FF6FF7C0CEA40001DB141F2210CCD
:100F300080EA0C00784004F1010C0CF0FF04082C4E
:100F4000E3DB01F1010C0CF0FF019942DADBF0BDAB
:100F500070477047704770470EB500214FF0006032
:100F600000F0AEFC4FF4A06000F0A0FC17208DF85C
:100F7000080002208DF8090001208DF80A0002A85F
:100F800000F05CFC28208DF8080002208DF8090094
:100F900000208DF80A0002A800F050FC03208DF814
:100FA000080000208DF809008DF80A0002A800F062
:100FB00045FC1C208DF8080000208DF80900012058
:100FC0008DF80A008DF80B0002A800F037FC1920FC
:100FD0008DF8080001208DF8090003208DF80A0023
:100FE00001208DF80B0002A800F028FC29208DF8C4
:100FF000080001208DF809008DF80A008DF80B001B
:1010000002A800F01BFC00208DF804004FF4003013
:10101000009008208DF8050001208DF80600684634
:10102000FFF71EFE0EBD000010B50948007802282B
:1010300004D0032803D0042807D103E000BF00F048
:1010400049FC03E002F006FD00E000BF00BF10BD58
:101050006C1600202DE9F04107460D460024FF2DB7
:1010600001DDBDE8F081292000F0B0F8044604F469
:101070007E4426462C4344F48064012F06D144F478
:1010800080742146292000F01DF903E02146292023
:1010900000F018F9012204210948FFF728FF05EBA9
:1010A0008501480000F088F9002204210448FFF778
:1010B0001EFF26F48061292000F004F900BFD0E76C
:1010C0000010014010B50121202000F0FBF80021A4
:1010D000212000F0F7F840F20351222000F0F2F84E
:1010E0004CF6C801232000F0EDF84FF450512420B5
:1010F00000F0E8F80121252000F0E4F801220421A5
:101100001748FFF7F4FE4FF47A7000F055F900220B
:1011100004211348FFF7EBFE41F20361272000F0A2
:10112000D1F84CF6C801282000F0CCF84FF450510B
:10113000292000F0C7F84FF496712A2000F0C2F879
:10114000012204210648FFF7D2FE4FF47A7000F026
:1011500033F9002204210248FFF7C9FE10BD000048
:101160000010014010B5FFF7ADFF00F001F810BD11
:1011700010B50021084600F0A5F848F28A010120C8
:1011800000F0A0F846F2F061022000F09BF84FF466
:101190006161032000F096F847F62061042000F01A
:1011A00091F840F60421052000F08CF800210A2077
:1011B00000F088F84FF480610B2000F083F84FF4C2
:1011C00040610E2000F07EF810BD00002DE9F041D6
:1011D000054600260027B046002210213748FFF7B9
:1011E00086FE02F09BFE012211033448FFF77FFECA
:1011F000012210213148FFF77AFE002426E002F098
:10120000BCFE00224FF480512C48FFF770FE02F024
:10121000B4FE052C0ADC0120A040284040FA04F26C
:101220004FF480512648FFF762FE04E001221103CB
:101230002348FFF75CFE02F0A0FE012211031F48C5
:10124000FFF755FE02F06AFE601CC4B2082CD6DB24
:1012500002F06DFE00241EE002F08FFE00224FF42B
:1012600080511648FFF743FE02F058FE0122110399
:101270001248FFF73CFE02F080FE4FF400610F4879
:10128000FFF728FE064606FA04F086B2374302F05E
:1012900074FE601CC4B2102CDEDB02F06EFE002275
:1012A00010210648FFF723FE02F038FE012210212C
:1012B0000248FFF71CFE3846BDE8F08100080140F7
:1012C000001001402DE9F04105460E46002700229E
:1012D00010213748FFF70BFE02F020FE0122110318
:1012E0003348FFF704FE012210213148FFF7FFFDCC
:1012F000002427E002F012FE00224FF480512C4817
:10130000FFF7F5FD02F039FE052C0ADC0120A040B4
:10131000284040FA04F24FF480512648FFF7E7FDD9
:1013200005E000224FF480512248FFF7E0FD02F073
:10133000F5FD012211031E48FFF7D9FD02F0EEFD75
:10134000601CC4B2082CD5DB00241EE002F0EFFDC7
:1013500000224FF480511648FFF7C9FD02F00DFE40
:101360000120A04030402041C2B24FF480511148CA
:10137000FFF7BDFD02F001FE012211030C48FFF74B
:10138000B6FD02F0CBFD601CC4B2102CDEDB02F017
:10139000C5FD002210210648FFF7A9FD02F0BEFDA1
:1013A000012210210248FFF7A2FDBDE8F0810000F4
:1013B0000008014000100140002105E0002200E08B
:1013C000521C482AFCD3491C8142F7D370470000C5
:1013D00000B50020704908707049087070480078A6
:1013E00009286ED2DFE800F0B0051F39536E8092F5
:1013F000A1006C486C49097830F811006B490880ED
:101400006B486C49097830F811006B49088001205D
:1014100061490870082061490870402067490861E7
:101420008000486191E05F485F49097830F8110019
:101430005E4908805E485F49097830F811005E49CE
:101440000880012054490870042054490870402045
:101450005A4908618000086177E05248524909788A
:1014600030F811005149088051485249097830F844
:101470001100514908800220474908700820474957
:10148000087040204D494861800048615DE0454852
:101490004549097830F811004449088044484549D5
:1014A000097830F811004449088002203A49087050
:1014B00004203A4908704020404948618000086192
:1014C00043E041E0012034490870354800783C4948
:1014D000087034483449097830F8110033490880DD
:1014E00040203649086130E002202B4908702C4822
:1014F0000078334908702B482B49097830F81100DF
:101500002A49088040202D4948611EE008202349CF
:10151000087027482749097830F8110026490880C3
:101520004FF48070254948610FE004201B49087082
:101530001F482049097830F811001F4908804FF4EE
:1015400080701E49086100E000BF00BF02F001FD8D
:101550001C4840781C49097888420BD000201B4960
:10156000087018484078184908701648807818495B
:1015700008800CE01648008816490978884206D091
:101580000020124908700F4880781149088002F045
:10159000E0FC02F0DEFC00BDC8150020C9150020EB
:1015A000E5150020D4600008DD150020CA150020D4
:1015B00054610008DC150020CC150020001001400B
:1015C000DE1500207A1600208F160020EE15002070
:1015D000F0150020E215002000B5002046490870F3
:1015E0004648007809285ED2DFE800F05D05132147
:1015F0002F3D3E3F4E0042484249097830F81100E5
:101600004149088008203C49087040013F49486131
:101610004AE03B483B49097830F811003A490880D4
:101620000420354908708001384908613CE034489D
:101630003449097830F811003349088008202E49D0
:1016400008704001314948612EE02D482D49097844
:1016500030F811002C4908800420274908708001C7
:101660002A49086120E01FE01EE008202249087096
:1016700023482449097830F81100234908804FF4A1
:101680008070224948610FE004201B4908701C4803
:101690001C49097830F811001B4908804FF480700C
:1016A0001A49086100E000BF00BF02F052FC184870
:1016B00040781849097888420BD0002016490870F4
:1016C00013484078134908701148807813490880FE
:1016D0000CE01248008812490978884206D00020A0
:1016E0000D4908700A4880780C49088002F031FCE6
:1016F00002F02FFC00BD0000C9150020E6150020F7
:1017000054610008DC150020CC15002000100140B9
:10171000801600208C160020EE150020F015002009
:10172000E2150020014601207047000010B500209E
:101730002B4908704870C87001202A4908702A494E
:1017400008702A48007818B9294800782749087095
:1017500000202849088008802748007860B1274881
:10176000008840F2FE31084024490880012004F03E
:101770000DFC0020204908702148007860B102204B
:1017800002F0B4FF1F48008840F2FE3108401D49B6
:10179000088000201A490870642002F0F7FB00203E
:1017A00011490870184908701849087018490870DC
:1017B00018490870184908701849088018490880A5
:1017C0001849087018490870184908801849088095
:1017D00018490870184908700449087010BD0000C5
:1017E0007A16002077160020E0150020E51500206D
:1017F000DE150020C6150020B5150020000C0040A5
:10180000B415002000040040DD150020DC15002088
:10181000DA150020DB150020EE150020CA15002087
:10182000CC150020D2150020D3150020CE150020A5
:10183000D0150020C8150020C915002070B5002162
:1018400000230F22C47804B3154C246804F4E06428
:10185000C4F5E064210AC1F10403CA40447804FAE3
:1018600003F184781440214309010E4C0678A155F8
:10187000047804F01F050124AC4005786D11AD001B
:1018800005F1E025C5F8004109E0047804F01F05E2
:101890000124AC40044D0678761145F8264070BD11
:1018A0000CED00E000E400E080E100E002490143CB
:1018B000024A1160704700000000FA050CED00E0DC
:1018C000024A0A400243024B1A60704780FFFF1F22
:1018D00008ED00E02DE9F041002600270025FE2458
:1018E000FF20F54908700020F4490870F44840785A
:1018F000F4490978884203D0F1484078FF287DD127
:10190000EF480078FF2833D1EF48007802282FD025
:10191000EE480078EE490978884217D1E8484078C7
:10192000E74989780844E649C9780844E4490979CF
:101930000844E34949790844E14989790844E04980
:10194000C9790844C4B2DE48057A56E0DC484078DC
:10195000DB4989780844DA49C9780844D8490979C3
:101960000844D74949790844C4B2D548857944E048
:10197000D3480078A02840D1D348007803283CD031
:10198000D2480078D249097888421ED1CC480078E4
:10199000CB494978491E4840C94989784840C849D7
:1019A000C9784840C64909794840C54949794840FD
:1019B000C34989794840C249C9794840C049097A30
:1019C0004840C4B2BE48457A17E0BD480078BC49DB
:1019D0004978491E4840BA4989784840B849C97889
:1019E0004840B74909794840B54949794840B44920
:1019F00089794840C4B2B248C57900E01DE0A542EB
:101A00001BD1AF488078752818D19020AA4908705A
:101A10000120B0490870AA480079AF490870A84869
:101A20004079AE490870A648C078AD4908700846AC
:101A3000007800F08000AB4908708DE3A048807802
:101A4000762818D190209C4908700220A14908707E
:101A50009B480079A449087099484079A3490870C7
:101A60009748C0789E4908700846007800F08000CA
:101A70009F49087070E39248807877280BD19120B5
:101A80008D4908708E480079934908708C484079D8
:101A90009249087060E38A48807820283AD19020E3
:101AA000854908708648C0798D4908708448C07897
:101AB00020B98348007908B900260EE00126804845
:101AC000C078854908707E48007984490870844848
:101AD000007800F08000834908707948407920B987
:101AE0007748807908B900270FE0022774484079C9
:101AF0007D490870724880797C4908707848007880
:101B000000F0400040007A49087046EA0700714939
:101B1000087021E36A48C07808BB694880780728C4
:101B20001BD2DFE800F0100408170C18190004207D
:101B30006149087012E00E205F4908700EE00F2026
:101B40005D4908700AE005205B4908700120694979
:101B5000087003E002E001E000E000BFFCE258484A
:101B60008078512833D008DC1D280FD0402811D0B0
:101B7000452817D0502836D115E052282FD05328A9
:101B80002ED061282DD062282DD12BE0FF204A498C
:101B90000870E0E24A484079504908708020464980
:101BA0000870D8E2D7E24648C078012807D14448F7
:101BB00040794A49087082203F49087006E0404851
:101BC000C078022802D183203B490870C3E23C4818
:101BD000407942490870842037490870BBE2BAE274
:101BE000B9E2B8E2B7E23648C078032802D0002054
:101BF000414908703248C07832287FD023DC102851
:101C00007DD00BDCA0F102000B2879D2DFE800F0D8
:101C100089E57DF878DD91F7C5F6AC00242870D011
:101C200008DC12286ED014286DD0202838D0222845
:101C300066D1A7E1282867D02A286ED02C286DD03D
:101C40003028F5D1B6E14D2869D014DC422867D0A0
:101C500008DC332875D0342874D0362873D0402857
:101C6000E6D121E044286FD048286ED04A286DD0B4
:101C70004C28DDD10AE2542869D008DC4F2867D00F
:101C800050286ED051286DD05228D1D122E2802820
:101C90000ED0902867D0912872D09228C8D149E2FE
:101CA00001200549087054E202200349087050E2FF
:101CB0000320014908704CE2751600206E160020C2
:101CC0009E1800206B1600206C1600204116002084
:101CD00039160020451600206F16002070160020CF
:101CE0007416002043160020711600207216002082
:101CF0004416002066000020561600208AE128E0E5
:101D00001CE233E155E03CE048E1F8480079F8494D
:101D100008700620F74908701BE26FE156E10DE1FB
:101D200090E10720F3490870F0480079F049087005
:101D30000FE20820EF490870EC484079EE4908703E
:101D400007E2E5E14EE1E4E170E187E1B6E1A9E116
:101D500004E10920E7490870E4484079E649087041
:101D6000F7E187E1F2E0DDE10A20E2490870DF48AF
:101D70000079DF490870DD484079DF490870E8E103
:101D8000D4E10B20DB490870D8480079D8490870A5
:101D9000D6484079D8490870DBE10C20D549087055
:101DA000D2480079D2490870D0484079D2490870A9
:101DB000CFE10D20CF490870CC480079CC4908709C
:101DC000CA484079CC490870C3E11120C94908705C
:101DD000C6484079C6490870BBE11020C549087063
:101DE000C2484079C2490870C448007848B1012807
:101DF00015D002284AD0032877D14FE08EE189E13F
:101E000094E0BB480078FF2803D10120BB4908704B
:101E100004E00020BA490870B849087084E0B4486A
:101E20000078FE2803D10220B44908702DE0B048A4
:101E30000078FD2806D10120B14908700220AF4981
:101E4000087022E0AA480078FF2805D10220AC499A
:101E50000870AA49087018E0A5480078CD280FDB63
:101E6000A3480078D0280BDCA1490978C839C8B24A
:101E700003F07CFB0020A2490870A049087004E030
:101E800000209F4908709D4908704DE098480078EF
:101E90009C49087003209949087045E098480078EB
:101EA000012815D192480078FD280DD19548007879
:101EB000C92809DB93480078CC2805DC91490978CA
:101EC000C839C8B203F052FB00208D49087024E0E5
:101ED0008B480078022809D18A4800788A4908701E
:101EE0000846007803F034FB12E017E080480078E1
:101EF000FE280DD17E480078844908700846007895
:101F0000062801DD022008708048007803F012FBEB
:101F100000207A4908707A49087005E00020774966
:101F200008707749087000BF00BF12E112207149A4
:101F300008706E4840796E4908700AE113206D49B7
:101F400008706A4840796A49087002E114206949BA
:101F500008706648407966490870FAE015206549BE
:101F600008706248407962490870F2E017206149C0
:101F700008705E4800795E4908705C4840795E49A7
:101F80000870E6E018205B49087058480079584905
:101F900008705648407958490870DAE019205549C8
:101FA00008705248007952490870504840795249A7
:101FB0000870CEE01A204F4908704C4800794C490F
:101FC00008704A4840794C490870C2E01B204949D2
:101FD00008704648007946490870444840794649A7
:101FE0000870B6E01C204349087040480079404919
:101FF00008703E48407940490870AAE01D203D49DC
:1020000008703A4800793A490870384840793A49A6
:1020100008709EE01E203749087034480079344922
:102020000870324840793449087092E01F203149E5
:1020300008702E4800792E4908702C4840792E49A6
:10204000087086E020202B4908702848007928492C
:10205000087026484079284908707AE021202549EF
:1020600008702248007922490870204840792249A6
:1020700008706EE022201F4908701C4800791C4936
:1020800008701A4840791C49087062E023201949F9
:1020900008701648007916490870144840791649A6
:1020A000087056E024201349087010480079104940
:1020B00008700E484079104908704AE025200D4903
:1020C00008700A4800790A490870084840790A49A6
:1020D00008703EE02620074908700448007904494A
:1020E0000870024840790449087032E09E180020C8
:1020F0006F1600207516002070160020561600205E
:1021000057160020581600206B1600206D16002070
:102110001FE01EE0FF20114908701AE0FF200F4960
:10212000087016E0FF200D49087012E0FF200B49EF
:1021300008700EE01620094908700AE00848C078C7
:1021400018B1FF200549087002E00020034908701B
:1021500000BF00BF00BF00BFBDE8F08175160020C2
:102160009E18002070470000014908627047000077
:1021700000000E4201460020034A506820F440400F
:1021800008435060704700000010024029B1064A21
:10219000D2690243044BDA6104E0034AD269824304
:1021A000014BDA61704700000010024029B1064A75
:1021B00012690243044B1A6104E0034A1269824324
:1021C000014B1A61704700000010024029B1064A15
:1021D00092690243044B9A6104E0034A9269824384
:1021E000014B9A61704700000010024029B1064A75
:1021F000D2680243044BDA6004E0034AD2688243A7
:10220000014BDA6070470000001002400F48006880
:1022100040F001000D490860084640680C4908403C
:102220000A494860084600680A49084007490860AA
:102230000846006820F4802008600846406820F4C2
:10224000FE0048604FF41F00886070470010024095
:102250000000FFF8FFFFF6FE30B500210022002449
:1022600000232D4D6D6805F00C0121B1042905D026
:10227000082923D105E0294D056022E0274D05609E
:102280001FE0254D6D6805F47012234D6D6805F44F
:102290008034022505EB92421CB9214D554305605F
:1022A0000BE01D4D6D6805F400351DB11C4D554307
:1022B000056002E0194D5543056002E0174D0560C9
:1022C00000BF00BF144D6D6805F0F0010909154D00
:1022D0006B5C0568DD4045600F4D6D6805F4E0619D
:1022E000090A104D6B5C4568DD4085600A4D6D68DC
:1022F00005F46051C90A0B4D6B5C4568DD40C56053
:10230000054D6D6805F44041890B074D6B5CC56850
:10231000B5FBF3F5056130BD0010024000127A00F4
:1023200000093D00000000201000002010B501460B
:102330000022002300204A11012A02D1094C2368FF
:1023400006E0022A02D1074C236A01E0054C636AC9
:1023500001F01F02012494401C400CB1012000E058
:10236000002010BD001002400248406800F00C0040
:10237000704700000010024001460020034A5068E8
:1023800020F0F00008435060704700000010024049
:102390001149096821F480310F4A1160114609681A
:1023A00021F480211160B0F5803F03D0B0F5802F7B
:1023B0000ED106E00849096841F48031064A1160EF
:1023C00007E00549096841F4A021034A116000E0D3
:1023D00000BF00BF704700000010024070470000BF
:1023E00000210B4A11700A4A203A82F82010012875
:1023F00002D0042808D103E00121054A117004E04D
:102400000521034A117000E000BF00BF70470000C3
:102410002010024001460020034A506820F4E0608A
:102420000843506070470000001002400146002041
:10243000034A506820F4605040EAC1005060704781
:102440000010024001490866704700000000424247
:1024500002460020044B586820F47C1042EA010335
:102460001843014B5860704700100240014600209D
:10247000034A506820F00300084350607047000092
:102480000010024038B5002000900024002500BF55
:102490003120FFF74BFF05460098401C0090009844
:1024A000B0F5A06F01D0002DF2D03120FFF73EFF34
:1024B00008B1012400E00024204638BD30B50246B2
:1024C0000B4600244FF40070104D2860002114E0EA
:1024D0000024585C0E4D288006E04CF250308442B7
:1024E00001D9002030BD641C0948001F008800F09D
:1024F00040000028F1D0481C81B29142E8DB4FF443
:102500000070024D2D1D28600120EBE7100C0140EA
:1025100004380140704770477047704770477047F4
:1025200021B1028842F04002028004E002884FF6A6
:10253000BF731A400280704770B505460C461646B8
:1025400010211048FEF7CFFC032000F041F9C4F33E
:10255000074000F03DF9C4F3072000F039F9E0B27C
:1025600000F036F904E0FF2000F032F928706D1C0D
:10257000301EA6F101018EB2F5D110210148FEF7FF
:10258000B4FC70BD001001402DE9F05F07460E4617
:1025900014464FF00008C146C2460025AB4606F07F
:1025A000FF0ACAF10000C5B22046E11704EB116131
:1025B000C1F30728E11704EB11610912A4EB012113
:1025C00001F0FF09BAF1000F20D1B8F1000F05D1D9
:1025D00022463146384600F0CBF864E009E04FF47B
:1025E00080723146384600F0C3F806F5807607F56C
:1025F0008077B8F10000A8F1010101F0FF08EED1E9
:102600004A463146384600F0B3F84CE0B8F1000FC6
:1026100018D1A94510DDA9EB050000F0FF0B2A46F3
:102620003146384600F0A4F82E442F445A4631462D
:10263000384600F09DF836E022463146384600F034
:1026400097F830E0601B84B22046E11704EB11617B
:10265000C1F30728E11704EB11610912A4EB012172
:1026600001F0FF092A463146384600F081F82E4431
:102670002F4409E04FF480723146384600F078F874
:1026800006F5807607F58077B8F10000A8F1010122
:1026900001F0FF08EED1B9F1000F04D04A463146EF
:1026A000384600F065F8BDE8F09F000000B587B03F
:1026B00001210420FFF78AFD01210803FFF786FDB1
:1026C0002020ADF8040003208DF8060018208DF8B6
:1026D000070001A92348FEF72AFB4020ADF80400BB
:1026E00001A92048FEF723FB8020ADF8040001A9D2
:1026F0001C48FEF71CFB01211020FFF767FD10208E
:10270000ADF804008DF8070001A91748FEF70FFB8C
:1027100010211548FEF7E9FB0020ADF808004FF442
:102720008270ADF80A000020ADF80C000220ADF870
:102730000E000120ADF810004002ADF81200082094
:10274000ADF814000020ADF816000720ADF8180011
:1027500002A9064800F090F801210448FFF7E0FEC6
:1027600007B000BD000801400010014000300140EA
:1027700070B505460C46164600F060F81021134867
:10278000FEF7B1FB0A2000F023F8C4F3074000F085
:102790001FF8C4F3072000F01BF8E0B200F018F8AF
:1027A000B6F5807F01DD4FF4807603E0287800F0F5
:1027B0000FF86D1C301EA6F101018EB2F6D110216A
:1027C0000248FEF792FB00F01FF870BD00100140B8
:1027D00010B5044600BF02210A4800F03FF8002867
:1027E000F9D02146074800F045F800BF012105480F
:1027F00000F034F80028F9D0024800F038F8C0B2F0
:1028000010BD00000030014010B5002410210A481E
:10281000FEF769FB0520FFF7DBFF00BFFF20FFF796
:10282000D7FF044604F001000028F7D11021024828
:10283000FEF75BFB10BD00000010014010B5102139
:102840000548FEF750FB0620FFF7C2FF10210248A3
:10285000FEF74BFB10BD00000010014002460020B7
:1028600013890B400BB1012000E0002070470146A6
:10287000888970478181704710B50022028802F470
:1028800041520B884C8823438C882343CC882343B4
:102890000C8923434C8923438C892343CC892343CC
:1028A0001A430280838B4FF2FF74234083830B8A89
:1028B000038210BD10B500F001F810BD0CB500206A
:1028C000019000903348006840F48030314908603E
:1028D00000BF3048006800F4003000900198401CB0
:1028E0000190009818B90198B0F5A06FF1D129486E
:1028F000006800F4003010B10120009001E00020D9
:1029000000900098012843D12348006840F010004F
:10291000214908600846006820F003000860084666
:10292000006840F0020008601A4840681949486091
:102930000846406848600846406840F48060486047
:102940000846406820F47C1048600846406840F41F
:10295000E81048600846006840F08070086000BFDA
:102960000C48006800F000700028F9D00948406861
:1029700020F00300074948600846406840F0020024
:10298000486000BF0348406800F00C000828F9D1F7
:102990000CBD0000001002400020024010B513489A
:1029A000006840F00100114908600846406810497D
:1029B00008400E494860084600680E4908400B4927
:1029C00008600846006820F48020086008464068D7
:1029D00020F4FE0048604FF41F008860FFF76AFF94
:1029E0004FF000600449086010BD00000010024074
:1029F0000000FFF8FFFFF6FE08ED00E010B502F062
:102A000055FC0020164908701649087016490870D0
:102A1000164908701649087016490870164908705A
:102A20001648007808B90120087014480078022878
:102A30000AD0032811D107200E49087010490870E8
:102A400009201049087009E008200A4908700C495B
:102A500008700A200B49087000E000BF00BF10BDDD
:102A60006E16002075160020761600206F160020C6
:102A700070160020391600206A1600206C160020FF
:102A8000401600204116002070477047704770477D
:102A9000704710B5FDF783FD10BD10B5FDF7A4FD1F
:102AA00010BD10B5FDF7C6FD10BD10B5FDF7E2FD78
:102AB00010BD10B5FDF704FE10BD7047704770479C
:102AC00070477047CA430282704721B1028842F0C2
:102AD0000102028004E002884FF6FE731A40028071
:102AE0007047000010B504466848844208D10121AF
:102AF000C014FFF77BFB0021E014FFF777FBC4E075
:102B0000B4F1804F08D101210846FFF74FFB0021A7
:102B10000120FFF74BFBB8E05D48844208D101215A
:102B20000220FFF743FB00210220FFF73FFBACE050
:102B30005848844208D101210420FFF737FB0021C7
:102B40000420FFF733FBA0E05348844208D1012161
:102B50000820FFF72BFB00210820FFF727FB94E05C
:102B60004E48844208D101211020FFF71FFB0021AD
:102B70001020FFF71BFB88E04948844208D101215F
:102B80002020FFF713FB00212020FFF70FFB7CE044
:102B90004448844208D101214014FFF727FB00215B
:102BA0006014FFF723FB70E03F48844209D1012104
:102BB000C804FFF71BFB00214FF40020FFF716FBB2
:102BC00063E03A48844209D101210805FFF70EFB72
:102BD00000214FF48010FFF709FB56E0344884428F
:102BE00009D101214805FFF701FB00214FF4001036
:102BF000FFF7FCFA49E02F48844208D10121402028
:102C0000FFF7D4FA00214020FFF7D0FA3DE02A4830
:102C1000844208D101218020FFF7C8FA00218020DA
:102C2000FFF7C4FA31E02548844208D1012180151C
:102C3000FFF7BCFA0021A015FFF7B8FA25E02048FD
:102C4000844209D101210804FFF7D0FA00214FF492
:102C50008030FFF7CBFA18E01A48844209D10121ED
:102C60004804FFF7C3FA00214FF40030FFF7BEFA23
:102C70000BE01548844208D101218804FFF7B6FA19
:102C800000214FF48020FFF7B1FA10BD002C014065
:102C90000004004000080040000C0040001000400C
:102CA0000014004000340140004C0140005001403D
:102CB0000054014000180040001C0040002000406B
:102CC0000040014000440140004801401AB183899E
:102CD0000B43838102E083898B438381704700002B
:102CE000002202881D4B98420ED01D4B98420BD0FB
:102CF000B0F1804F08D01B4B984205D01A4B984238
:102D000002D01A4B984204D14FF68F731A404B8869
:102D10001A43174B984207D0164B984204D04FF6EF
:102D2000FF431A40CB881A4302808B8883850B8827
:102D300003850A4B98420BD0094B984208D00E4BA2
:102D4000984205D00D4B984202D00D4B984201D1CC
:102D50000B7A03860123838270470000002C014018
:102D6000003401400004004000080040000C004016
:102D700000100040001400400040014000440140A9
:102D8000004801407047704710B5FDF7C3FC10BD07
:102D900010B5FDF7EFFC10BD704710B50022002301
:102DA00040F66A14A14200D100BF0A1201249440E7
:102DB000A3B2DC43048010BD10B502460020108A87
:102DC0004FF2FF0318400B884C8823438C88234321
:102DD000CC8823431843108210BD21B1828942F46C
:102DE0000052828104E082894DF6FF731A4082818D
:102DF000704702460020B1F5007F00D100BF138864
:102E00000B400BB1012000E00020704770B5024676
:102E1000002400230025002040F66A16B14200D1AC
:102E200000BFC1F3421501F01F03012606FA03F3A8
:102E3000012D02D19689334006E0022D02D1168A77
:102E4000334001E0968A33400C12012606FA04F45E
:102E50001688344013B10CB1012000E0002070BD91
:102E6000F0B50346002400260025002040F66A172E
:102E7000B94200D100BF1846C1F3421401F01F0649
:102E8000012707FA06F5012C01D10C3004E0022CD1
:102E900001D1103000E014301AB107682F430760E9
:102EA00002E00768AF430760F0BD00002DE9F0477E
:102EB00086B005460E460024A24600BFA146002764
:102EC000B08900B100BF2F462C8A4CF6FF70044039
:102ED000F08804432C82AC894EF6F3100440B0888D
:102EE00031890843718908430443AC81AC8A4FF6A9
:102EF000FF400440B0890443AC8201A8FFF7ACF95D
:102F00001F48874202D1DDF810A001E0DDF80CA0D7
:102F1000A88900F4004040B10AEBCA0000EB0A1097
:102F200031684900B0FBF1F807E00AEBCA0000EB9A
:102F30000A1031688900B0FBF1F86420B8FBF0F0AA
:102F400004012009642101FB1089A88900F40040D4
:102F500040B1322000EBC900B0FBF1F000F00700F7
:102F6000044308E0322000EB09106421B0FBF1F0CB
:102F700000F00F0004432C8106B0BDE8F08700008C
:102F80000038014001468888C0F308007047C1F34B
:102F90000802828070477047704702E008C8121F1D
:102FA00008C1002AFAD170477047002001E001C132
:102FB000121F002AFBD170472DE9F04106460F464B
:102FC000182002F001FA05464DB3164890F90000AA
:102FD0000F2822DA002403E0385D2855601CC4B2B3
:102FE000B442F9DB002068610F48006810B10F4857
:102FF000006820B90C4805600C48056004E00A48E8
:10300000006845610848056006480078401C40B2E9
:10301000044908700120BDE8F0810220FBE7002090
:10302000F9E700005C1600206416002060160020FE
:1030300008B501210420FFF7C9F841F21000ADF8EE
:10304000000010208DF8030003208DF8020069466F
:103050001748FDF76CFE4FF40060ADF80000482003
:103060008DF8030003208DF8020069461048FDF733
:103070005EFE01211020FFF7A9F841F20C00ADF827
:10308000000010208DF8030003208DF8020069462F
:103090000848FDF74CFE002208210648FDF727FFEF
:1030A000002204210348FDF722FFFEF75BF808BD6C
:1030B00000080140001001402DE9F0474FF0000AE0
:1030C00000BF2048D0F800A040F2FC70824501DB30
:1030D00040F2FB7ABAF1000F01DA4FF0000A1A4809
:1030E00000EBCA0130C9194A194B20462946FDF7A1
:1030F000E2F804460D460022134620462946FDF715
:1031000069F90CD825F0004126460022114B3046C3
:10311000FDF72AF88046FDF73DF9824609E0224690
:103120002B4600200B49FDF7C0F80646FDF732F9A3
:103130008246002211460FFA8AF001F009FBBDE831
:10314000F0870000B8150020D86100089A99999975
:103150009999793F0040674038B504466A46022194
:10316000042000F02DFA9DF8000038BD38B5044663
:1031700000946B4601220221042000F023FB38BD9D
:1031800070B504460D460026012C07D12A460121C0
:10319000022000F015FA40B1012606E02A4602217D
:1031A000084600F00DFA00B10126304670BD08B5A2
:1031B0006A460021022000F003FA9DF8000008BDD5
:1031C00038B505460C46082D00DD08250095012C74
:1031D00006D16B4601221146022000F0F3FA07E007
:1031E000022C05D16B4601220221084600F0EAFAC2
:1031F00038BD1CB5044600200190012C02D10420EA
:10320000019001E0002001906A460221082000F0B0
:10321000D7F960B1012C05D19DF8000040F00800FD
:10322000019004E09DF8000020F00800019001AB3F
:1032300001220221082000F0C5FA1CBD1CB504467D
:10324000002001900CB9019001E00C2001906A4629
:103250000021042000F0B4F938B19DF8000000F01E
:1032600003009DF804100843019001AB01220021E6
:10327000042000F0A7FA1CBD1CB5044600200190F4
:10328000012C02D10420019001E0002001906A4647
:103290000221082000F094F960B1012C05D19DF8BD
:1032A000000040F00400019004E09DF8000020F0D0
:1032B0000400019001AB01220221082000F082FAF3
:1032C0001CBD1CB504466A460021082000F078F9B0
:1032D00058B12CB19DF8000040F00100019004E0CD
:1032E0009DF8000020F001000190019401AB012243
:1032F0000021082000F066FA1CBD000010B504464D
:103300002CB14FF400510548FDF7EFFD04E04FF4F8
:1033100000510248FDF7E7FD10BD0000000C014020
:1033200038B50446082C6AD0092C68D0082C5DD228
:10333000DFE804F030043B0F461A5125012000F06D
:1033400025FA022000909DF800000007000E009072
:103350004DE0012000F01AFA002000909DF80000D6
:103360000007000E009042E0012000F00FFA01205B
:1033700000909DF800000007000E009037E001204B
:1033800000F004FA052000909DF800000007000EF0
:1033900000902CE0002000F0F9F9022000909DF848
:1033A00000000007000E009021E0002000F0EEF980
:1033B000002000909DF800000007000E009016E02D
:1033C000002000F0E3F9012000909DF800000007C4
:1033D000000E00900BE0002000F0D8F905200090CE
:1033E0009DF800000007000E009000E000BF00BF45
:1033F0006B4601222321082000F0E4F90AE0082CA2
:1034000003D10120FFF75DFF04E0092C02D1002069
:10341000FFF757FF38BD38B5044600946B460122CC
:103420002621082000F0CEF938BD38B5044634B165
:10343000012C07D0022C08D0032C09D109E0002070
:10344000009009E00120009006E00220009003E0D7
:1034500000BF0320009000BF00BF6B460122114651
:10346000032000F0AFF938BD2DE9F041054688464C
:10347000082D00DD08252248475D224800782249B2
:10348000087000204870202088700420C87008460A
:1034900005710020487188710846C7710821FDF741
:1034A0002BFD064618490E72300A48720A20174949
:1034B000087002F0C5FB00F047F9F0B1144800783D
:1034C0000B2802DC0020BDE8F081114800780B38A1
:1034D000C7B200240CE00A48405DA04200DA09E0CF
:1034E00004F109000B49085C08F80400601CC4B230
:1034F000BC42F0DB00BF0120E5E70020E3E700006D
:10350000B860000860000020DA1800208A16002049
:1035100018000020A21900202DE9F041054622489C
:10352000077A22480078224908700020487020203D
:1035300088700420C870082008710120487100209C
:1035400088710846C7710821FDF7D6FC0646184960
:103550000E72300A48720A201649087002F070FB99
:1035600000F0F2F8E8B1144800780B2802DC0020E3
:10357000BDE8F081104800780B38C7B200240BE09A
:103580000948007AA04200DA08E004F109000B497A
:10359000085C2855601CC4B2BC42F1DB00BF0120AE
:1035A000E6E70020E4E70000B860000860000020C3
:1035B000DA1800208A16002018000020A219002026
:1035C0002DE9F04105460C46164615480078154988
:1035D000087000204870202088700420C8700846B9
:1035E00005714C71200A88710120C87108210D48AD
:1035F000FDF782FC07460B490F72380A48720A2011
:103600000949087002F01CFB00F09EF828B1074839
:10361000407A30700120BDE8F0810020FBE7000017
:1036200060000020DA1800208A160020A21900206D
:103630001CB50446002001906A4601210820FFF7CE
:10364000BFFF60B1012C05D19DF8000040F0800063
:10365000019004E09DF8000020F08000019001AB93
:1036600001221146082000F0ADF81CBD70B50546DA
:10367000002423480078002841D0224800780828F8
:1036800007D10124052002F071FC042000F07EFB2C
:1036900035E01C480078092807D10124052002F0F4
:1036A00065FC082000F072FB29E016480078062827
:1036B00007D10124052002F059FC012000F066FB2F
:1036C0001DE010480078072807D10124052002F0EA
:1036D0004DFC022000F05AFB11E00A4800780E2849
:1036E00003D0084800780F2809D1064800780E2832
:1036F00005D1102000F04AFB0E2002F027FC70BD1F
:10370000281600207516002038B5044684B1012C17
:1037100004D0022C05D0032C09D105E00120009033
:1037200009E00220009006E00320009003E000BFC3
:103730000020009000BF00BF6B4601221146082008
:1037400000F040F838BD000070B5C82400250D48D1
:103750000078B0F5967F04DA0A48007804EB400060
:1037600084B207E0142000F011FC0748007808B18B
:10377000012504E0201EA4F101018CB2F2D100BFAA
:10378000284670BD18000020871600201CB504468E
:103790006A4600210820FFF713FF58B12CB19DF8AD
:1037A000000040F01000019004E09DF8000020F0BF
:1037B0001000019001AB01220021082000F002F866
:1037C0001CBD00002DE9F04107460E461446984600
:1037D0000D48077101464E71300A88710846C47160
:1037E000002507E018F8051005F10800064A1154F5
:1037F000681CC5B2A542F5DB201DC1B2282000F02F
:10380000C5F80020BDE8F081DA1800202DE9F0416C
:1038100005460F46082D00DD08250E48465D0E487A
:10382000057100200C49487188710846C671002452
:1038300006E0395D04F10800074A1154601CC4B267
:10384000B442F6DB301DC1B2282000F09FF8002002
:10385000BDE8F081B8600008DA18002070B50646AF
:103860000E48057A08200E49087101204871002091
:1038700088710846C571002406E0315D04F1080036
:10388000074A1154601CC4B2AC42F6DB281DC1B219
:10389000282000F07BF8002070BD0000B860000810
:1038A000DA18002038B50446022C01D1009001E05E
:1038B000002000906B46012200210220FFF782FFCA
:1038C00038BD000070B50446022600251AE000212C
:1038D000322000F05BF8322000F058FB0D480078F1
:1038E00080B10D4880794FF47F4101EA00202080AB
:1038F0002188094840790844208000200549087043
:10390000012504E0301EA6F10101CEB2DFD100BFD7
:10391000284670BD87160020A219002038B504463D
:10392000E0B200906B46012211460520FFF74AFFE6
:10393000200A00906B46012202210520FFF742FF7A
:1039400038BD38B5044600200090012C02D1022079
:10395000009001E0002000906B4601220221082027
:10396000FFF730FF38BD38B5044600200090012C29
:1039700002D10120009001E0002000906B4601225E
:1039800000210520FFF71EFF38BD000070B5054679
:103990000C460F4800780F49087000204870084610
:1039A0008570C470201DC1B20A48FDF7A5FA06460D
:1039B000201D084A1654310A601D1154A01D0649E5
:1039C000087002F03DF9502000F010FB70BD0000BF
:1039D00060000020DA1800208A16002010B5044686
:1039E000002000F051FA40F6B83000F0CFFA4FF462
:1039F00000410848FDF777FA012000F045FA42F24D
:103A0000283000F0C3FA4FF400410248FDF76DFA88
:103A100010BD00000010014010B50446002000F069
:103A200033FA40F6B83000F0B1FA4FF400510848CC
:103A3000FDF759FA012000F027FA42F2283000F091
:103A4000A5FA4FF400510248FDF74FFA10BD0000EF
:103A50000010014070B5FF20B54908700020B5493D
:103A60000870B548C079EE287AD1B3488678C57811
:103A7000B72E57D016DC092E73D006DC062E32D2B4
:103A8000DFE806F031FCFBFAF9F8A82E2CD004DCB4
:103A9000A12E24D0A52E26D131E0AA2E3ED0AD2EC7
:103AA000F9D137E0C52E7BD00CDCC22E7ED004DCF1
:103AB000B82E57D0C12EEED193E0C32E72D0C42EB3
:103AC000E9D1DCE0CF2E6ED004DCC72E6CD0C82E3E
:103AD000E1D1FFE0DC2E68D0DF2EDCD1FCE001215B
:103AE000A22001F007FD21E10120FFF707FC4FF4C0
:103AF000FA7000F04BFA0020FFF7A0FB16E100205F
:103B0000FFF7FCFB4FF4FA7000F040FA0120FFF7DA
:103B100095FB0BE12846FFF788FC07E10020FFF743
:103B200084FC03E1FFF743FB044684492046FFF78A
:103B300027FBA0B181480078082804DA7F48007884
:103B4000401C7E49087021467C480078FFF738FB0E
:103B50007B487A4A1278815CB32001F0CBFCE5E027
:103B6000E5E0DFE0FFF723FB044674492046FFF75A
:103B700007FBA0B171480078002804DD6F48007889
:103B8000401E6E49087021466C480078FFF718FB0C
:103B90006B486A4A1278815CB32001F0ABFCC5E047
:103BA00075E003E038E096E079E096E00020FFF76A
:103BB000D3FA6449087008460078082803DA0846F2
:103BC0000078401C08705F480078FFF7CFFA5D4826
:103BD0000078C0F108005A4A115CB42001F08AFC58
:103BE000A4E00020FFF7B8FA5649087008460078AC
:103BF000002803DD08460078401E08705148007810
:103C0000FFF7B4FA4F480078C0F108004C4A115C45
:103C1000B42001F06FFC89E035B1022D06D0032DF0
:103C200006D0042D08D105E0642407E0852405E0D2
:103C3000A72403E0C82401E0642400BF00BF75B1DD
:103C40000120FFF77EFEC82000F0A0F90120FFF759
:103C50008AFEC82000F09AF90020FFF772FE45B9ED
:103C60000020FFF780FE322000F090F90020FFF7DF
:103C70007AFE5BE052E049E040E037E02EE00DB133
:103C8000012100E000210846FFF7F6FA4EE00DB1F1
:103C9000012100E000210846FFF7BDFB46E035B1F9
:103CA000012D08D0022D0AD0032D10D10BE00020E9
:103CB000FFF72AFD0CE00120FFF726FD08E00220B7
:103CC000FFF722FD04E00320FFF71EFD00E000BF28
:103CD00000BF2BE02AE029E028E027E01648007921
:103CE000194908700620124908701FE00720104982
:103CF0000870114800791449087017E008200C4931
:103D000008700D484079114908700FE009200849F2
:103D10000870094840790D49087007E00E200449F1
:103D2000087003E090200249087000BF00BF70BD1A
:103D3000751600206E1600209E18002046160020E2
:103D400048160020471600206F160020701600202D
:103D500010B50446002000F097F840F6B83000F0A7
:103D600015F94FF480410848FDF7BDF8012000F037
:103D70008BF842F2283000F009F94FF480410248F4
:103D8000FDF7B3F810BD00000010014010B5044667
:103D90000348047101215920FFF7F8FD10BD000010
:103DA000DA18002010B50446034804710121582098
:103DB000FFF7ECFD10BD0000DA18002010B5044636
:103DC00064B90120FFF7EEFF502000F0DFF89020EB
:103DD000FFF7DCFF4FF4967000F0D8F810BD00003C
:103DE00008B501210820FEF7F1F901212020FEF796
:103DF000EDF901211020FEF7E9F90820ADF80000E7
:103E000010208DF8030003208DF8020069461B483E
:103E1000FCF78DFF0420ADF8000069461848FCF758
:103E200086FF04211648FDF760F808211348FDF7C6
:103E30005CF80120FEF798F90020FEF7D1FA002087
:103E4000FCF7D8FC0020FEF78FF94FF46040ADF886
:103E5000000069460B48FCF76AFF4FF480410948AF
:103E6000FDF743F84FF400410648FDF73EF84FF4E4
:103E700000510448FDF739F808BD0000000C01406E
:103E8000001401400010014010B5044624B1042183
:103E90000448FDF72AF803E004210248FDF723F85F
:103EA00010BD00000014014010B5044624B10421E7
:103EB0000448FDF71AF803E004210248FDF713F85F
:103EC00010BD00000010014010B50020FFF7DCFF1E
:103ED00040F6B83000F05AF808210748FDF703F81B
:103EE0000120FFF7D1FF42F2283000F04FF80821FF
:103EF0000148FCF7FAFF10BD000C014010B500248A
:103F00000549142000F07EF8012802D1FDF78CF855
:103F10000124204610BD00009E1800201E2000E055
:103F200000BF011EA0F10102D0B2F9D1704700BF5D
:103F300000BF7047042106E040F27E4001E0421ECF
:103F400090B20028FBDC0A1EA1F1010399B2F3D163
:103F50007047082000BF011EA0F10100FBD170478F
:103F600000B5034603E000F039F800F037F8181EFA
:103F7000A3F10101CBB2F6D100BD0A2000E000BFE1
:103F8000011EA0F10102D0B2F9D1704730B504464C
:103F9000254602E0FFF7CEFF6D1E002DFAD130BDA1
:103FA00030B50446002503E00120FFF7D9FF6D1C62
:103FB000A542F9DB30BD30B5044609E0052502E035
:103FC000C820FFF7EDFF281EA5F10101CDB2F7D102
:103FD000201EA4F10101CCB2F0D130BD062000BFFB
:103FE000011EA0F10102D0B2FAD17047002105E014
:103FF000002200E0521C8242FCDB491CB1F5167F16
:10400000F6DB70472DE9F04106460F46144800687C
:1040100000B313480568006840691149086000242E
:1040200003E0285D3855601CC4B2B442F9DB284671
:1040300001F0BCF90B480078401E40B209490870F5
:10404000084690F90000002801DA002008700120DD
:10405000BDE8F08100200449086000BFF8E70000D7
:10406000601600205C1600206416002070B504461F
:104070000D46A5F1290058286FD2DFE800F02C2D5D
:104080002E2F6E6E6E6E6E3C46505A646F6E6E6E64
:104090006E796E6E6E6E6E6E6E6E6E6E6E6E6E6E35
:1040A0006E6E6E6E6E838485868C96A0A16E6EA2F7
:1040B0006E6E6E6EA36E6E6E6E6EFEFDFCFBFAF99A
:1040C000F8F76EF6F5F4F3F2F1F0EFEEEDECEBEA63
:1040D000E9E8E76EB8D500BF00BF00BFA5F1280131
:1040E00001EBC10202EB01114FF6FF7202EA8100FF
:1040F000FFF714FC26E1112C03D10120FFF7BCF8D7
:1041000002E00020FFF7B8F81CE1112C03D10120D8
:10411000FFF78EFA02E00020FFF78AFA12E1112C75
:1041200003D10120FFF7F0FA02E00020FFF7ECFADC
:1041300008E1112C03D10220FFF7E6FA02E000208B
:10414000FFF7E2FAFEE0112C03D10120FFF763F93B
:1041500002E00020FFF75FF9F4E0F2E0112C03D158
:104160000120FFF746F802E00020FFF742F8E9E0FF
:10417000112C03D10120FFF74EF902E00020FFF7D8
:104180004AF9DFE000BF00BF00BFA5F15001C8B28F
:1041900000F07EF9D6E0112C03D1012000F048F99F
:1041A00002E0002000F044F9CCE0112C03D1012002
:1041B00000F056F902E0002000F052F9C2E000BF22
:1041C000C0E000BF112C09D103206B490870012009
:1041D0006A4908700020FFF7F1FD07E000206649FA
:1041E0000870664908700120FFF7E8FDAAE0112C6D
:1041F0000FD1012062490870002062490870032035
:10420000FFF750FB6048027800217F2001F0BCF8E6
:1042100009E000205A4908705A49087002205B4999
:10422000087001F017FB8DE0112C27D102205449B2
:1042300008700120534908700220FFF733FB5248F1
:1042400002780021802001F09FF821E06FE064E017
:104250005FE05AE055E051E04CE043E03EE039E0F9
:1042600034E02FE02AE025E020E03FE018E016E00F
:1042700014E012E010E00EE00CE00AE000204049FB
:1042800008704049087001204049087001F0E2FAC6
:1042900058E000BF00BF00BF00BF00BF00BF00BFAD
:1042A000A5F16401C8B200F03DFF4BE00120FFF72B
:1042B00037F847E00520FFF733F843E00320FFF726
:1042C0002FF83FE00720FFF72BF83BE00020FFF737
:1042D00027F837E00420FFF723F833E00220FFF748
:1042E0001FF82FE00620FFF71BF82BE00920FFF74F
:1042F00017F827E00820FFF713F823E0FFF7E4FDA5
:1043000020E00020FFF724FD1CE00020FFF784FBE5
:1043100018E00020FFF762FB14E0112C03D101200C
:10432000FFF7B2FD02E00020FFF7AEFD0AE0112C1E
:1043300003D1012000F0FCFB02E0002000F0F8FBBC
:1043400000E000BF00BFC92D11DBD02D0FDC112C08
:104350000DD1A5F1C801C8B200F0E2FD0020FFF7C1
:10436000A3FDC820FFF727FE0120FFF79DFD1420C5
:10437000FFF716FE70BD0000610000202816002027
:104380005F0000203C0000206B1600203D00002054
:1043900038B50446012221466846FEF7CDF89DF85F
:1043A000000038BD13B504460122214601A8FEF7DE
:1043B000EBF81CBD08B501210820FDF707FF01211E
:1043C0000420FDF703FF4FF44050ADF8000010202B
:1043D0008DF8030003208DF8020069461248FCF7AF
:1043E000A6FC4FF480511048FCF77DFD4FF40051BE
:1043F0000D48FCF778FD01200C4988704FF44060AF
:10440000ADF8000010208DF8030003208DF80200A5
:1044100069460548FCF78BFC002000F009F80020F5
:1044200000F01EF808BD0000000C01406A1A0020D0
:1044300010B50446012C05D10122C1020648FCF743
:1044400056FD05E000224FF400610348FCF74FFDE4
:104450000248C47010BD0000000C01406A1A002020
:1044600010B50446012C05D1012281020648FCF753
:104470003EFD05E000224FF480610348FCF737FD64
:104480000248047110BD0000000C01406A1A0020AF
:1044900070B5044600250026082C00DD70BD012CF7
:1044A00001D0032C00D10125032C01D0022C00D116
:1044B00001262A464FF480510648FCF718FD324683
:1044C0004FF400510348FCF712FD601C024988704C
:1044D00000BFE3E7000C01406A1A002000B5552038
:1044E0007649087076480078552874D17448407829
:1044F000A52870D001207349087000207249087007
:104500006F48407802280CD16D48C078032808D144
:104510006B48807828B16A48007910B10120087092
:104520004FE06748407802280DD16548C0780528DB
:1045300009D16348807830B16148007918B1022010
:10454000614908703DE05E48407804280DD15C4820
:10455000C078032809D15A48807830B1584800798A
:1045600018B10320584908702BE0554840780428BA
:104570000DD15348C078052809D15148807830B111
:104580004F48007918B104204F49087019E04E488F
:104590000078B0B94A484078022802D004280ED1E9
:1045A00006E04748807810B105204749087007E0C9
:1045B0004348807810B106204349087000E000BFEE
:1045C00000BF41480078B8B93D48C078032803D0FF
:1045D00005280FD107E04FE03948007910B10720D6
:1045E0003949087007E03648007910B1082036498B
:1045F000087000E000BF00BF3448007832490978F5
:1046000088422BD001202F4908703048007818B913
:104610002F4800782D49087000202E4908802E4927
:104620000870294800782949087027480078092827
:1046300014DA2348C07888B12148007970B100208D
:1046400026490880012025491839088023482C383C
:10465000008840F0010021492C3908801849087968
:10466000FDF760F8164908710846C07828B3084677
:1046700000791B49087020E011480078AA280FD162
:1046800000200F4908700F4908700C49087001207C
:10469000144908701448B0F90000FCF76FFA0CE0F8
:1046A00007484079802808D00C482C38008840F210
:1046B000FE31084009492C39088000BDD31500207F
:1046C00080160020E1150020E8150020E6150020E6
:1046D000DF150020C6150020DC1500202C0400404A
:1046E000DB1500208B160020C415002070B5044691
:1046F000002524B3022C21D0052C02D0062C21D178
:104700000DE000F04FF811480078401C0F49087088
:1047100008460078082801DB0020087013E000F04C
:104720004DF80A48007818B907200849087004E0D5
:1047300006480078401E0549087004E000BF00F0FC
:1047400049F800E070BD00BF00BFFBE7261600205F
:10475000F0B506460C46174610480680002504E0D2
:1047600000200F494855681CC5B2062DF8DB7CB106
:10477000A5200B49087004F0800028B10846447158
:1047800007F00100C87006E0601E0549487102E0AC
:10479000AA2003490870FFF7A1FEF0BDC415002050
:1047A0008016002010B580210348FCF79CFB4021B7
:1047B0000148FCF79AFB10BD0010014010B54021E4
:1047C0000348FCF790FB80210148FCF78EFB10BDED
:1047D0000010014010B540210348FCF784FB802104
:1047E0000148FCF780FB10BD0010014008B5012115
:1047F0001020FDF7EBFCC020ADF8000010208DF874
:10480000030003208DF8020069460648FCF78FFA82
:1048100040210448FCF767FB80210248FCF763FB5A
:1048200008BD00000010014010B56720FFF7B0FD83
:1048300004460CB1072C00DD02240148047010BDB1
:104840006D16002010B523490020FEF70DFE9620BE
:10485000FFF79CFB1F492B310120FEF705FE962038
:10486000FFF794FB1B493A310220FEF7FDFD96202D
:10487000FFF78CFB174979310320FEF7F5FD9620F1
:10488000FFF784FB134988310420FEF7EDFD9620E5
:10489000FFF77CFB0F49C7310520FEF7E5FD9620A9
:1048A000FFF774FB0B49E6310620FEF7DDFD96208D
:1048B000FFF76CFB08490720FEF7D6FD9620FFF7AF
:1048C00065FB05483730FEF727FE9620FFF75EFBB5
:1048D00010BD0000711A0020DA1B002010B5642002
:1048E000FFF756FD582804D16520FFF751FD8528B4
:1048F00019D001216620FFF755FD02216720FFF73F
:1049000051FD58216420FFF74DFD85216520FFF7FB
:1049100049FD6420FFF73CFD064908706520FFF75C
:1049200037FD054908706620FFF732FD044603484D
:10493000047010BD62000020630000206B16002090
:1049400070B5044626460EB1102E00DD0126701EFD
:10495000C0EBC0107B2101EB800085B27120FFF716
:1049600017FD882801D0002070BD681CFFF710FDDE
:10497000342801D00020F7E74FF4FE7229460248A0
:10498000FDF7DAFD0120EFE76A1A0020F8B50020F4
:104990000090C8254FF496763348007800B1F8BDF2
:1049A00032480068B0F5FA7F5CD96846FEF78AFFA6
:1049B000002854D02E4800782E490978884203D028
:1049C0004FF6FF702C4908802A4800782849087063
:1049D0002848007830B1012805D0022807D00328E4
:1049E0000ED108E00DE0B0254FF48C7609E0E62505
:1049F0004FF4C67605E04FF4C8754FF4FA7600E040
:104A000000BF00BFBDF800001B490988884206DDD1
:104A1000BDF8000018490988401A84B205E016481C
:104A20000088BDF80010401A84B2BDF8000018B923
:104A3000022000F037F90EE0BDF80000A84203DACA
:104A4000022000F02FF906E0BDF80000B04202DDC0
:104A5000022000F013F8BDF800000749088000208C
:104A60000249086000BF9AE73C0000201C000020BB
:104A70005E0000203D0000205600002070B5054675
:104A80001748B0F90000002800DC70BD1448B0F9E8
:104A90000000401B06D51248B0F90000C0F16400C8
:104AA000C4B200E02C46002608E03C210120FCF7BF
:104AB000D1FA5020FFF76AFA701CC6B2A642F4DBA6
:104AC00007480088001B00B2054908800846B0F975
:104AD0000000002801DA0020088000BFD5E70000B0
:104AE0003A00002008B501211820FDF76FFB2020B7
:104AF000ADF8000010208DF8030003208DF80200AF
:104B000069460948FCF713F920210748FCF7EDF93D
:104B10000120ADF8000069460448FCF708F90121BE
:104B20000248FCF7E2F908BD00100140000C01400A
:104B300010B50446012C00DD10BD0D48847154B140
:104B4000012C11D120210B48FCF7CFF901210A4893
:104B5000FCF7CBF908E020210648FCF7C4F9012155
:104B60000548FCF7C0F900BF00BF00BFE4E7000044
:104B70006A1A002000100140000C014010B53224D8
:104B800008E03C210120FCF765FA2820FFF7FEF938
:104B9000601E84B2002CF4D14FF49670FFF7F6F942
:104BA000642408E03C210020FCF754FA2820FFF799
:104BB000EDF9601E84B2002CF4D14FF49670FFF72B
:104BC000E5F9322408E03C210120FCF743FA2820D3
:104BD000FFF7DCF9601E84B2002CF4D132200349C7
:104BE00008804FF49670FFF7D1F910BD3A0000200D
:104BF00070B5054600240D480078B0B10C48008817
:104C0000844204DD0A480088201A86B203E008487E
:104C10000088001B86B21DB1012000F043F802E0BD
:104C20000120FFF72BFF0248048070BD3C000020EC
:104C30004E00002010B54FF480410B48FCF755F9A9
:104C40004FF400410848FCF74EF9C820FFF79EF9E1
:104C50004FF480410448FCF746F94FF40041024804
:104C6000FCF741F910BD0000000C014010B54FF4F5
:104C700080410B48FCF737F94FF400410848FCF736
:104C800034F9C820FFF782F94FF480410448FCF75B
:104C90002AF94FF400410248FCF725F910BD000045
:104CA000000C014070B505461748B0F900006428B3
:104CB00000DB70BD1448B0F900002844642806DD0C
:104CC0001148B0F90000C0F16400C4B200E02C4605
:104CD000002608E03C210020FCF7BCF95020FFF73B
:104CE00055F9701CC6B2A642F4DB07480088204480
:104CF00000B2054908800846B0F90000642801DDCB
:104D00006420088000BFD4E73A00002008B50121E4
:104D10000820FDF75BFA4FF44040ADF8000010208A
:104D20008DF8030003208DF8020069460648FBF762
:104D3000FEFF4FF480410448FCF7D5F84FF40041E2
:104D40000148FCF7D0F808BD000C01402DE9F04700
:104D500005460E46174698464FF00009FF201049B9
:104D600008700120487008468570C670077180F889
:104D70000580012406E00A48005D48441FFA80F9D6
:104D8000601CC4B2062CF6DB054981F806900720AA
:104D900000F006FC1E20FFF7F9F8BDE8F0870000E0
:104DA0008F18002010B500F011F800F023F810BDA6
:104DB00070B505460DB1002400E001240023224611
:104DC00002210120FFF7C2FF70BD000010B5FBF704
:104DD0008DFE4FF41650FBF7F5FC002240F22551F2
:104DE0000348FEF73DF801210148FDF7F6FF10BD2D
:104DF000004C004010B500231A4606210120FFF7A1
:104E0000A5FF10BD10B50446012C08D11E200A498B
:104E1000088008460178012000F010F80BE0022C11
:104E200008D11E200449088008460178002000F0BF
:104E300005F800E000BF10BD6400002070B5064614
:104E40000D460EB1002400E001242B462246042129
:104E50000120FFF77BFF70BD10B54FF480710B4848
:104E6000FCF743F84FF400710848FCF73EF84FF4A4
:104E70007A60FFF78BF84FF480710448FCF733F841
:104E80004FF400710148FCF72EF810BD000C0140F2
:104E900010B5FFF723FDFFF7C7FC0120FFF750FD1A
:104EA000002835D06420FFF771F800F04BFCC820D3
:104EB000FFF76CF819488078042802DD01201749B3
:104EC00088701648C078012802DD01201349C87097
:104ED00012480079012802DD0120104908710F49AC
:104EE0008978491EC8B2FFF7D3FA0C49C878FFF792
:104EF0009FFA0A490879FFF7B3FA0849487900F0A0
:104F000011F906498879FFF713FE00F093FC04E0DD
:104F1000012002498870C870087110BD6A1A00200B
:104F200010B50446FFF7DAFCFFF77EFC2046FFF7DA
:104F300007FD00282ED01848C078012802DD012086
:104F40001549C87014480079012802DD0120124972
:104F5000087111488078042802DD01200E4988700C
:104F600000F0F0FB0C498978491EC8B2FFF790FAAF
:104F70000949C878FFF75CFA07490879FFF770FA22
:104F800005498879FFF7D4FD0349487900F0CAF84C
:104F900000F050FC10BD00006A1A0020FBF7DCFF97
:104FA00000F03AFA3C20FEF7F1FF12205549087054
:104FB00034204870FFF7E2FD00F0B4FF4FF41670A4
:104FC000FEF7E4FFFFF764FFFFF7ECFE00204E4919
:104FD000087000F04FFEFDF711FDFEF76DF842F688
:104FE000E060FEF7D3FF8BE0FFF7D0FCFEF786FF13
:104FF00000286FD0454800780E2806D04348007836
:105000000F2802D000204249087000F037FA3F48CC
:105010000078102844D004DC0E2807D00F2866D171
:1050200021E0112849D0902861D154E03948007816
:1050300060B1012802D0022812D103E001203449D6
:1050400008700EE00120FFF7B3FE0AE03248007856
:1050500018B10120FFF7CCFD01E0FFF7EBFD00E008
:1050600000BF00BF44E02B48007860B1012802D0A7
:10507000022812D103E00220254908700EE000202A
:10508000FFF796FE0AE02448007818B10020FFF7E9
:10509000AFFD01E0FFF7EAFD00E000BF00BF27E041
:1050A0001E48007800F0E6F904462CB91B48017848
:1050B00016480078FEF7DAFF1AE01848007800F08A
:1050C000D9F904462CB91548017810480078FEF744
:1050D000CDFF0DE010E003200E49087000201049BC
:1050E0000870FFF7B9FE1420FEF75AFF00E000BF7A
:1050F00000BF0120FEF7BAFA05480078FFF782FEEC
:1051000072E700006A1A00206C1600207516002055
:1051100066000020610000203C0000206F16002087
:105120002816002010B50446092C6FD2DFE804F0E1
:105130006E05121F2C394653600010213548FBF7CD
:10514000D2FE20213348FBF7CEFE40213148FBF749
:10515000CAFE5CE010212F48FBF7C5FE20212D4838
:10516000FBF7C1FE40212B48FBF7BFFE4FE01021AB
:105170002848FBF7B8FE20212648FBF7B6FE402161
:105180002448FBF7B0FE42E010212248FBF7ABFEBB
:1051900020212048FBF7A9FE40211E48FBF7A5FE71
:1051A00035E010211B48FBF7A0FE20211948FBF732
:1051B0009AFE40211748FBF796FE28E0102115487B
:1051C000FBF793FE20211348FBF78DFE4021114889
:1051D000FBF78BFE1BE010210E48FBF786FE20211B
:1051E0000C48FBF782FE40210A48FBF77CFE0EE0EC
:1051F00010210848FBF779FE20210648FBF775FED1
:1052000040210448FBF771FE01E0FFE700BF00BF4B
:1052100010BD0000000C014008B501210820FCF77A
:10522000D5FF7020ADF8000010208DF8030003209A
:105230008DF8020069460848FBF779FD1021064801
:10524000FBF753FE20210448FBF74DFE40210248A6
:10525000FBF749FE08BD0000000C01402DE9F041BC
:1052600005460F4890F8480528B90E490868804758
:105270000120BDE8F081B5F5A05F0FD26E090A48A4
:1052800030F81670002405E000203119064A22F893
:105290001100641CBC42F7DB0020EAE70220E8E7CB
:1052A00068100020680000207014002000B54FF442
:1052B000A0520021034800F05CF80121024880F868
:1052C000481500BD70000020681000202DE9F04155
:1052D00006460024A046194890F8480510B9184918
:1052E000086880471EB94FF0FF30BDE8F081C6F373
:1052F0004F1506F01F0008B1681C85B29F2418E006
:10530000104830F8140020B908F101001FFA80F8A5
:1053100001E04FF00008A8450AD1002704E0E01999
:10532000084921F810507F1CAF42F8D36001DCE738
:10533000641E002CE4DA4FF0FF30D6E7681000203E
:10534000680000207014002010B50023002102E046
:10535000581C83B2491CA029FAD364205843052461
:1053600090FBF4F08202D01702EBD060C0F347103C
:1053700010BD30B5034601E003F8011B141EA2F175
:105380000102F9D130BD000070B506460C46154645
:1053900000F0FAF807200449C87008460671447105
:1053A000284600F01FF970BD691C002070B5044646
:1053B00004B970BD0348251A2846FFF74FFF00BF08
:1053C000F7E700007000002070B505462846FFF79B
:1053D0007DFF0446601C08B9002070BD01482044D0
:1053E000FBE7000070000020EE220A4B1A701A46FC
:1053F000507052789B781A44064BDB781A44054B60
:105400001B791A44034B5B791A44D1B2014A91715A
:1054100070470000691C002010B5FBF7FDF9012161
:105420000846FCF7D3FE01211048FBF70BFD0121D4
:105430000F48FBF707FD00F01FFEFFF7D7F9FFF756
:1054400065FCFEF7B7FFFFF7E7FEFEF7C9FC00F0CB
:105450000BFAFFF747FB00F065FD00F011FB00F0D1
:1054600035FAFDF723F9FDF7E3FD10BD0004300028
:1054700000023000014600207047000010B51948B6
:10548000007806282AD2DFE800F029030410111D55
:1054900000BF14480078401EC4B2E11CC8B200F03E
:1054A00075FD01201049087019E000BF0D48007813
:1054B000C01EC4B2611DC8B2FFF718F901200B4924
:1054C00008700CE0FCF732F90020FFF70FF900201C
:1054D00000F05CFD00200649087000E000BF00BF3E
:1054E00010BD000075160020B5150020B415002071
:1054F000660000207FB505460C46B1208DF80000FF
:10550000B2208DF801008DF802508DF80340002084
:105510008DF804008DF805008DF80600EE208DF85A
:10552000070069460820FCF7C9FF2820FEF75EFD4A
:105530007FBD000010B5044600200449087000F04B
:1055400099FB21466720FEF72DFF10BD6C16002049
:1055500010B5044621466620FEF724FF6620FEF7BC
:1055600017FF0149087010BD6200002070B50446A5
:1055700025460DB1102D00DD0125FFF763F9284602
:1055800000F02CF970BD0000002004E00021034A67
:105590001154411CC8B20A28F8DB7047691C00206E
:1055A00030B502460B460024002114E00024585C6C
:1055B0000B4D288006E04CF25030844201D9002087
:1055C00030BD641C0648001F008800F04000002821
:1055D000F1D0481C81B29142E8DB0120F0E70000E5
:1055E000044C004010B504462046FFF7FDFE044978
:1055F0000720FCF763FF2820FEF7F8FC10BD000031
:10560000691C00202849294A1278885427490978BA
:10561000032926D10021264A11702349897820299F
:1056200007D12149214A1278895C891D214A1170CC
:105630000EE01D498978282903D107211D4A1170E0
:1056400006E01949194A1278895C891D194A1170B6
:1056500015498978102904D116490978491E154A37
:10566000117012490978491C104A117011460978C5
:10567000104A127891420FDB0C49097803290BDD9F
:105680000C4909780A4A117001210B4A1170002156
:10569000064A1170074A117004490978C82902DBCB
:1056A0000021024A11707047A219002088160020BC
:1056B00018000020170000208716002010B51C4895
:1056C00000781C490978884212DA19480078401E8F
:1056D000194A115C1948FDF75AFC40F22771174826
:1056E000FDF75BFB12480078401C1149087017E079
:1056F0000F480078401E104A115C1048FDF747FC27
:1057000040F227710D48FDF748FB01200849087059
:105710000B490870002240F227710848FDF7A0FBF2
:1057200003480078C82802DB01200149087010BD39
:10573000891600208A160020DA1800200044004054
:105740008616002010B523490020FEF75FF896204A
:10575000FEF71CFC1F492B310120FEF757F896205D
:10576000FEF714FC1B493A310220FEF74FF8962051
:10577000FEF70CFC174979310320FEF747F8962015
:10578000FEF704FC134988310420FEF73FF8962009
:10579000FEF7FCFB0F49C7310520FEF737F89620CE
:1057A000FEF7F4FB0B49E6310620FEF72FF89620B2
:1057B000FEF7ECFB08490720FEF728F89620FEF7D5
:1057C000E5FB05483730FEF749F89620FEF7DEFB8B
:1057D00010BD0000711A0020DA1B002070B50546CC
:1057E0002C460CB1102C00DD0124601EC0EBC01053
:1057F0007B2101EB800086B24FF4FE7231460B48EC
:10580000FCF7C2FE4FF4FE7231460948FCF794FEE5
:1058100088217120FEF7C6FD21467220FEF7C2FDE9
:10582000002003490870012070BD00006A1A0020A2
:105830009016002010B50120FEF7AAFD044908705B
:1058400008460078032801DD0120087010BD000023
:105850003D00002010B5034801780120FEF7A2FDAD
:1058600010BD00003D00002010B5FBF719F810BD79
:1058700012480088002804DD10480088401E0F49A7
:1058800008800F480078FF2804DA0D480078401C93
:105890000B4908700B480078FF2804DA09480078A3
:1058A000401C0849087008480068401C20B10648A0
:1058B0000068401C04490860704700001A0000207E
:1058C00014000020150000201C00002010B5FBF77C
:1058D0001FF810BD10B55A48007820B10120594971
:1058E0000870FBF779FE584800884FF6FF71081AD8
:1058F000401E5649088001205449183908805448F0
:105900000078544908705448006800F0020050497B
:105910000870084600784F490978884209D04D48F8
:105920000078FF2805D001204C49087096204C498A
:1059300008804C48007855282AD14B480078082820
:105940000ED14748B0F90000002809DD0520FEF718
:10595000CDFE43480088401E00B2414908806EE0F9
:105960004148007804280FD13D48B0F90000B0F557
:10597000A87F09DC0620FEF7B9FE39480088401CE4
:1059800000B2374908805AE00220FEF7AFFE56E029
:1059900034480078AA2852D13448008860B333488C
:1059A0000088401E00B2314908802F48007808283E
:1059B0000ED12B48B0F90000002809DD28480088E6
:1059C000401E00B2264908800520FEF78FFE36E013
:1059D00025480078042832D12148B0F90000B0F5FC
:1059E000A87F2CDC0620FEF781FE1D480088401CA5
:1059F00000B21B49088022E014482C38008840F28D
:105A0000FE31084011492C39088000200E490880D9
:105A1000174908800C490880164908701649087013
:105A2000104908704FF6FF700849088001200749A7
:105A300018390880114908700220FEF757FE10BD82
:105A4000E1150020DC150020CC1500202C040040BE
:105A50008D1600208E16002008080140D615002063
:105A6000BC150020D3150020C9150020C415002046
:105A7000D0150020E5150020D5150020ED150020DB
:105A800010B5FAF779FF10BD10B55B48007868B122
:105A90005A4800785A490978884205D00120574968
:105AA0000870002057490870FBF792FC56480088A0
:105AB0004FF6FF71081A55490880012053491839DB
:105AC000088053480088401C51490880514800789C
:105AD000514908705148006800F001004D490870B4
